:02000000722963
:10000800FF00030E8301C5000A08C6008A017008B4
:10001800A3007B08A2007C08A1007D08A0000408BA
:10002800A4008B1CA8288B100B1240080319632806
:100038000130BD003C3086001030C3000030C400E1
:10004800BF01C920861C2F288B1C2E288B1001303D
:10005800BE002F2826283E0803193428BE01A728E9
:100068000330C3000030C40080304406F000803004
:100078007002031D412800304302031C5D288601DD
:100088004308253E840000088700B9200B30FB0098
:100098002630FC005D30FD00FD0B5028FC0B50287D
:1000A800FB0B5028000000000130C302031CC403EE
:1000B800382840080130031D0030C000A628BD01C3
:1000C8003C3086001830C3000030C4000130BF0047
:1000D800DB20861C76288B1C75288B100130BE000F
:1000E80076286D283E0803197B28BE01A72803300F
:1000F800C3000030C40080304406F0008030700235
:10010800031D882800304302031CA12886014308E8
:100118008700D2200B30FB002630FC005D30FD004C
:10012800FD0B9428FC0B9428FB0B9428000000007E
:100138000130C302031CC4037F2840080130031D9B
:100148000030C00019280B162308F0002208FB0015
:100158002108FC002008FD002408840046088A00C5
:0A016800450E8300FF0E7F0E090014
:1001720083120313081188150812881608138813AE
:02018200080073
:0E0184008312031342088A004108820008001B
:10019200831203130811881108168816081388138E
:0201A200080053
:1001A400831203130815881108128812081788137C
:0201B400080041
:1001B600831203130815881108128812081388176A
:0201C60008002F
:1001C800013083120313C0000F30C3000030C40095
:1001D80080304406F00080307002031DF52800309E
:1001E8004302031C23293F080319FC28BF012329C4
:1001F80086014308253E8400000887008030F0000F
:10020800803044067002031D0B294308033C031881
:100218000F29C9201029B9200B30FB002630FC001B
:100228005D30FD00FD0B1629FC0B1629FB0B16296A
:10023800000000000130C302031CC403EC280800BE
:10024800C2208A110A128000840AC10A0319C20A4C
:08025800F003031D2429080036
:1002600083120313C0011730C3000030C400803074
:100270004406F00080307002031D40290030430224
:10028000031C71293F08031D4A293D0803194A2907
:10029000BD01712986014308253E840000088700BE
:1002A0008030F000803044067002031D5929430855
:1002B000033C03185D29DB205E29D2200B30FB00B4
:1002C0002630FC005D30FD00FD0B6429FC0B642929
:1002D000FB0B6429000000000130C302031CC403AF
:0402E00037290800B2
:1002E40083120313A5010130A6000230A7000330D6
:1002F400A8000430A9000530AA000630AB0007307E
:10030400AC000830AD000930AE001030AF00113041
:10031400B0001230B1001330B2001430B300153005
:10032400B4001630B5001730B6001830B7001930D5
:10033400B8002030B9002130BA002230BB0023308D
:10034400BC00BD01BE01BF01C00183168701880145
:10035400033086000B168B1701133021E420AF29DC
:02036400B229BC
:02400E004A2F37
:00000001FF
